:100000000C941F010C9434010C9434010C943401B1
:100010000C9434010C9434010C9434010C9434018C
:100020000C9434010C9434010C9434010C9434017C
:100030000C9434010C9434010C9434010C9434016C
:100040000C9434010C9434010C9434010C9434015C
:100050000C9434010C9434010C9434010C9434014C
:100060000C9434010C943401000000000000005F87
:1000700000000007000700147F147F14242A7F2A41
:10008000122313086462364955225000050300000C
:10009000001C2241000041221C0014083E081408E4
:1000A000083E0808005030000008080808080060F2
:1000B00060000020100804023E514F453E00427F80
:1000C000400042615149462141454B311814127F8D
:1000D0001027454545393C4A494930017109050316
:1000E0003649494936064949291E0036360000007E
:1000F0005636000008142241001414141414004150
:100100002214080201510906324979413E7E11113B
:10011000117E7F494949363E414141227F4141227A
:100120001C7F494949417F090909013E4149497AF2
:100130007F0808087F00417F41002040413F017F48
:10014000081422417F404040407F020C027F7F0420
:1001500008107F3E4141413E7F090909063E415159
:10016000215E7F09192946464949493101017F012C
:10017000013F4040403F1F2040201F3F4038403F4C
:100180006314081463070870080761514945430068
:100190007F41410002040810200402010204404093
:1001A000404040000102040020545454787F4844E9
:1001B00044383844444420384444487F38545454E4
:1001C00018087E0901020C5252523E7F0804047F37
:1001D00000447D40002040443D007F102844000042
:1001E000417F40007C041804787C0804047C384477
:1001F0004444387C14141408081414187C7C080433
:1002000004084854545420043F4440203C404020BB
:100210007C1C2040201C3C4030403C44281028449A
:100220000C5050503C4464544C440008364100008B
:1002300000770000004136080008082A1C08112435
:100240001FBECFEFD8E0DEBFCDBF11E0A0E0B1E030
:10025000EEE1F5E002C005900D92A634B107D9F7A2
:100260000E9450020C948D020C94000088E480934C
:10027000B8001092B900089584EA8093BC00809180
:10028000BC0087FFFCCF089584E98093BC00809177
:10029000BC0084FDFCCF08958093BB0084E880936C
:1002A000BC008091BC0087FFFCCF0895CF93C82F7E
:1002B0000E943C0188E70E944C0180E00E944C01B2
:1002C0008C2F0E944C01CF910C944401CF93C82FE6
:1002D0000E943C0188E70E944C0180E40E944C018E
:1002E0008C2F0E944C01CF910C94440187EA91E637
:1002F0000197F1F700C000008EEA0E94560185EDDB
:100300000E94560180E80E94560188EA0E94560128
:100310008FE30E94560183ED0E94560180E00E9407
:10032000560180E40E9456018DE80E94560184E146
:100330000E94560180E20E94560182E00E9456010E
:1003400081EA0E94560188EC0E9456018AED0E94C3
:10035000560182E10E94560181E80E9456018FEC0D
:100360000E94560189ED0E94560181EF0E945601BC
:100370008BED0E94560180E40E94560184EA0E949F
:10038000560186EA0E9456018FEA0C9456010F939B
:100390001F93CF93C0EB8C2F0E94560180E00E94E8
:1003A000560180E10E94560100E810E080E00E94C2
:1003B000660101501040D1F7CF5FC83B61F7CF9184
:1003C0001F910F9108951F93CF93DF93D62FC42FC2
:1003D00040324CF180550E9456018D2F8F700E9443
:1003E00056018D2F82958F7080610E9456014C2F8F
:1003F000CC0F550B4052510985E0849FE001859F49
:10040000D00D1124C859DF4F15E0FE0184910E94E0
:100410006601115021961111F8CF80E0DF91CF9144
:100420001F910C946601DF91CF911F9108950F9356
:100430001F93CF93DF93D82FC62F8A01F8014191E4
:100440008F01411539F06C2F8D2F0E94E301CA5F97
:10045000CB37A0F3DF91CF911F910F91089556985C
:10046000559A5D9808954E99FECF28E160E070E0BE
:10047000CB015D9A0000660F771F881F991F5D985A
:1004800000004E9B04C06F5F7F4F8F4F9F4F2A9598
:1004900081F75D9A00005D98000087FD9F6F0895C9
:1004A0000E9436010E9476010E94C7010E942F021D
:1004B00040E051E060E080E00E94170241E151E03D
:1004C00060E082E00E94170287EA91E60197F1F767
:1004D00000C000000E94C7010E9433026B017C0132
:1004E00040E051E060E080E00E94170241E251E00C
:1004F00091EAC91696E8D90691E0E906F10414F4E8
:1005000043E351E060E083E00E9417028FE493EC44
:0E0510000197F1F700C00000DFCFF894FFCF95
:10051E003D3D3D204C4F414443454C4C203D3D3DDF
:10052E0000496E697469616C697A696E672E2E2E48
:10053E00005374617475733A204C4F414445442006
:10054E002020005374617475733A20454D505459F0
:06055E0020202020000017
:00000001FF
